{
  "_format": "hh-sol-artifact-1",
  "contractName": "TheLabNFT",
  "sourceName": "contracts/TheLabNFT.sol",
  "abi": [
    {
      "inputs": [
        {
          "internalType": "string",
          "name": "name",
          "type": "string"
        },
        {
          "internalType": "string",
          "name": "symbol",
          "type": "string"
        },
        {
          "internalType": "string",
          "name": "baseTokenURI",
          "type": "string"
        },
        {
          "internalType": "string",
          "name": "description",
          "type": "string"
        }
      ],
      "stateMutability": "nonpayable",
      "type": "constructor"
    },
    {
      "inputs": [
        {
          "internalType": "address",
          "name": "sender",
          "type": "address"
        },
        {
          "internalType": "uint256",
          "name": "tokenId",
          "type": "uint256"
        },
        {
          "internalType": "address",
          "name": "owner",
          "type": "address"
        }
      ],
      "name": "ERC721IncorrectOwner",
      "type": "error"
    },
    {
      "inputs": [
        {
          "internalType": "address",
          "name": "operator",
          "type": "address"
        },
        {
          "internalType": "uint256",
          "name": "tokenId",
          "type": "uint256"
        }
      ],
      "name": "ERC721InsufficientApproval",
      "type": "error"
    },
    {
      "inputs": [
        {
          "internalType": "address",
          "name": "approver",
          "type": "address"
        }
      ],
      "name": "ERC721InvalidApprover",
      "type": "error"
    },
    {
      "inputs": [
        {
          "internalType": "address",
          "name": "operator",
          "type": "address"
        }
      ],
      "name": "ERC721InvalidOperator",
      "type": "error"
    },
    {
      "inputs": [
        {
          "internalType": "address",
          "name": "owner",
          "type": "address"
        }
      ],
      "name": "ERC721InvalidOwner",
      "type": "error"
    },
    {
      "inputs": [
        {
          "internalType": "address",
          "name": "receiver",
          "type": "address"
        }
      ],
      "name": "ERC721InvalidReceiver",
      "type": "error"
    },
    {
      "inputs": [
        {
          "internalType": "address",
          "name": "sender",
          "type": "address"
        }
      ],
      "name": "ERC721InvalidSender",
      "type": "error"
    },
    {
      "inputs": [
        {
          "internalType": "uint256",
          "name": "tokenId",
          "type": "uint256"
        }
      ],
      "name": "ERC721NonexistentToken",
      "type": "error"
    },
    {
      "inputs": [
        {
          "internalType": "address",
          "name": "owner",
          "type": "address"
        }
      ],
      "name": "OwnableInvalidOwner",
      "type": "error"
    },
    {
      "inputs": [
        {
          "internalType": "address",
          "name": "account",
          "type": "address"
        }
      ],
      "name": "OwnableUnauthorizedAccount",
      "type": "error"
    },
    {
      "anonymous": false,
      "inputs": [
        {
          "indexed": true,
          "internalType": "address",
          "name": "owner",
          "type": "address"
        },
        {
          "indexed": true,
          "internalType": "address",
          "name": "approved",
          "type": "address"
        },
        {
          "indexed": true,
          "internalType": "uint256",
          "name": "tokenId",
          "type": "uint256"
        }
      ],
      "name": "Approval",
      "type": "event"
    },
    {
      "anonymous": false,
      "inputs": [
        {
          "indexed": true,
          "internalType": "address",
          "name": "owner",
          "type": "address"
        },
        {
          "indexed": true,
          "internalType": "address",
          "name": "operator",
          "type": "address"
        },
        {
          "indexed": false,
          "internalType": "bool",
          "name": "approved",
          "type": "bool"
        }
      ],
      "name": "ApprovalForAll",
      "type": "event"
    },
    {
      "anonymous": false,
      "inputs": [
        {
          "indexed": false,
          "internalType": "uint256",
          "name": "_fromTokenId",
          "type": "uint256"
        },
        {
          "indexed": false,
          "internalType": "uint256",
          "name": "_toTokenId",
          "type": "uint256"
        }
      ],
      "name": "BatchMetadataUpdate",
      "type": "event"
    },
    {
      "anonymous": false,
      "inputs": [
        {
          "indexed": false,
          "internalType": "uint256",
          "name": "_tokenId",
          "type": "uint256"
        }
      ],
      "name": "MetadataUpdate",
      "type": "event"
    },
    {
      "anonymous": false,
      "inputs": [
        {
          "indexed": true,
          "internalType": "address",
          "name": "to",
          "type": "address"
        },
        {
          "indexed": true,
          "internalType": "uint256",
          "name": "tokenId",
          "type": "uint256"
        }
      ],
      "name": "NFTMinted",
      "type": "event"
    },
    {
      "anonymous": false,
      "inputs": [
        {
          "indexed": true,
          "internalType": "address",
          "name": "previousOwner",
          "type": "address"
        },
        {
          "indexed": true,
          "internalType": "address",
          "name": "newOwner",
          "type": "address"
        }
      ],
      "name": "OwnershipTransferred",
      "type": "event"
    },
    {
      "anonymous": false,
      "inputs": [
        {
          "indexed": true,
          "internalType": "address",
          "name": "from",
          "type": "address"
        },
        {
          "indexed": true,
          "internalType": "address",
          "name": "to",
          "type": "address"
        },
        {
          "indexed": true,
          "internalType": "uint256",
          "name": "tokenId",
          "type": "uint256"
        }
      ],
      "name": "Transfer",
      "type": "event"
    },
    {
      "inputs": [
        {
          "internalType": "address",
          "name": "to",
          "type": "address"
        },
        {
          "internalType": "uint256",
          "name": "tokenId",
          "type": "uint256"
        }
      ],
      "name": "approve",
      "outputs": [],
      "stateMutability": "nonpayable",
      "type": "function"
    },
    {
      "inputs": [
        {
          "internalType": "address",
          "name": "owner",
          "type": "address"
        }
      ],
      "name": "balanceOf",
      "outputs": [
        {
          "internalType": "uint256",
          "name": "",
          "type": "uint256"
        }
      ],
      "stateMutability": "view",
      "type": "function"
    },
    {
      "inputs": [],
      "name": "donationContract",
      "outputs": [
        {
          "internalType": "address",
          "name": "",
          "type": "address"
        }
      ],
      "stateMutability": "view",
      "type": "function"
    },
    {
      "inputs": [
        {
          "internalType": "uint256",
          "name": "tokenId",
          "type": "uint256"
        }
      ],
      "name": "getApproved",
      "outputs": [
        {
          "internalType": "address",
          "name": "",
          "type": "address"
        }
      ],
      "stateMutability": "view",
      "type": "function"
    },
    {
      "inputs": [],
      "name": "getDescription",
      "outputs": [
        {
          "internalType": "string",
          "name": "",
          "type": "string"
        }
      ],
      "stateMutability": "view",
      "type": "function"
    },
    {
      "inputs": [
        {
          "internalType": "address",
          "name": "owner",
          "type": "address"
        },
        {
          "internalType": "address",
          "name": "operator",
          "type": "address"
        }
      ],
      "name": "isApprovedForAll",
      "outputs": [
        {
          "internalType": "bool",
          "name": "",
          "type": "bool"
        }
      ],
      "stateMutability": "view",
      "type": "function"
    },
    {
      "inputs": [
        {
          "internalType": "address",
          "name": "recipient",
          "type": "address"
        },
        {
          "internalType": "string",
          "name": "tokenURI",
          "type": "string"
        }
      ],
      "name": "mint",
      "outputs": [
        {
          "internalType": "uint256",
          "name": "",
          "type": "uint256"
        }
      ],
      "stateMutability": "nonpayable",
      "type": "function"
    },
    {
      "inputs": [
        {
          "internalType": "address",
          "name": "donor",
          "type": "address"
        },
        {
          "internalType": "string",
          "name": "tokenURI",
          "type": "string"
        }
      ],
      "name": "mintToDonor",
      "outputs": [
        {
          "internalType": "uint256",
          "name": "",
          "type": "uint256"
        }
      ],
      "stateMutability": "nonpayable",
      "type": "function"
    },
    {
      "inputs": [],
      "name": "name",
      "outputs": [
        {
          "internalType": "string",
          "name": "",
          "type": "string"
        }
      ],
      "stateMutability": "view",
      "type": "function"
    },
    {
      "inputs": [],
      "name": "owner",
      "outputs": [
        {
          "internalType": "address",
          "name": "",
          "type": "address"
        }
      ],
      "stateMutability": "view",
      "type": "function"
    },
    {
      "inputs": [
        {
          "internalType": "uint256",
          "name": "tokenId",
          "type": "uint256"
        }
      ],
      "name": "ownerOf",
      "outputs": [
        {
          "internalType": "address",
          "name": "",
          "type": "address"
        }
      ],
      "stateMutability": "view",
      "type": "function"
    },
    {
      "inputs": [],
      "name": "renounceOwnership",
      "outputs": [],
      "stateMutability": "nonpayable",
      "type": "function"
    },
    {
      "inputs": [
        {
          "internalType": "address",
          "name": "from",
          "type": "address"
        },
        {
          "internalType": "address",
          "name": "to",
          "type": "address"
        },
        {
          "internalType": "uint256",
          "name": "tokenId",
          "type": "uint256"
        }
      ],
      "name": "safeTransferFrom",
      "outputs": [],
      "stateMutability": "nonpayable",
      "type": "function"
    },
    {
      "inputs": [
        {
          "internalType": "address",
          "name": "from",
          "type": "address"
        },
        {
          "internalType": "address",
          "name": "to",
          "type": "address"
        },
        {
          "internalType": "uint256",
          "name": "tokenId",
          "type": "uint256"
        },
        {
          "internalType": "bytes",
          "name": "data",
          "type": "bytes"
        }
      ],
      "name": "safeTransferFrom",
      "outputs": [],
      "stateMutability": "nonpayable",
      "type": "function"
    },
    {
      "inputs": [
        {
          "internalType": "address",
          "name": "operator",
          "type": "address"
        },
        {
          "internalType": "bool",
          "name": "approved",
          "type": "bool"
        }
      ],
      "name": "setApprovalForAll",
      "outputs": [],
      "stateMutability": "nonpayable",
      "type": "function"
    },
    {
      "inputs": [
        {
          "internalType": "address",
          "name": "_donationContract",
          "type": "address"
        }
      ],
      "name": "setDonationContract",
      "outputs": [],
      "stateMutability": "nonpayable",
      "type": "function"
    },
    {
      "inputs": [
        {
          "internalType": "bytes4",
          "name": "interfaceId",
          "type": "bytes4"
        }
      ],
      "name": "supportsInterface",
      "outputs": [
        {
          "internalType": "bool",
          "name": "",
          "type": "bool"
        }
      ],
      "stateMutability": "view",
      "type": "function"
    },
    {
      "inputs": [],
      "name": "symbol",
      "outputs": [
        {
          "internalType": "string",
          "name": "",
          "type": "string"
        }
      ],
      "stateMutability": "view",
      "type": "function"
    },
    {
      "inputs": [
        {
          "internalType": "uint256",
          "name": "tokenId",
          "type": "uint256"
        }
      ],
      "name": "tokenURI",
      "outputs": [
        {
          "internalType": "string",
          "name": "",
          "type": "string"
        }
      ],
      "stateMutability": "view",
      "type": "function"
    },
    {
      "inputs": [
        {
          "internalType": "address",
          "name": "from",
          "type": "address"
        },
        {
          "internalType": "address",
          "name": "to",
          "type": "address"
        },
        {
          "internalType": "uint256",
          "name": "tokenId",
          "type": "uint256"
        }
      ],
      "name": "transferFrom",
      "outputs": [],
      "stateMutability": "nonpayable",
      "type": "function"
    },
    {
      "inputs": [
        {
          "internalType": "address",
          "name": "newOwner",
          "type": "address"
        }
      ],
      "name": "transferOwnership",
      "outputs": [],
      "stateMutability": "nonpayable",
      "type": "function"
    }
  ],
  "bytecode": "0x60806040523480156200001157600080fd5b50604051620032373803806200323783398181016040528101906200003791906200036e565b33848481600090816200004b9190620006a7565b5080600190816200005d9190620006a7565b505050600073ffffffffffffffffffffffffffffffffffffffff168173ffffffffffffffffffffffffffffffffffffffff1603620000d55760006040517f1e4fbdf7000000000000000000000000000000000000000000000000000000008152600401620000cc9190620007d3565b60405180910390fd5b620000e6816200011560201b60201c565b5081600a9081620000f89190620006a7565b5080600990816200010a9190620006a7565b5050505050620007f0565b6000600760009054906101000a900473ffffffffffffffffffffffffffffffffffffffff16905081600760006101000a81548173ffffffffffffffffffffffffffffffffffffffff021916908373ffffffffffffffffffffffffffffffffffffffff1602179055508173ffffffffffffffffffffffffffffffffffffffff168173ffffffffffffffffffffffffffffffffffffffff167f8be0079c531659141344cd1fd0a4f28419497f9722a3daafe3b4186f6b6457e060405160405180910390a35050565b6000604051905090565b600080fd5b600080fd5b600080fd5b600080fd5b6000601f19601f8301169050919050565b7f4e487b7100000000000000000000000000000000000000000000000000000000600052604160045260246000fd5b6200024482620001f9565b810181811067ffffffffffffffff821117156200026657620002656200020a565b5b80604052505050565b60006200027b620001db565b905062000289828262000239565b919050565b600067ffffffffffffffff821115620002ac57620002ab6200020a565b5b620002b782620001f9565b9050602081019050919050565b60005b83811015620002e4578082015181840152602081019050620002c7565b60008484015250505050565b60006200030762000301846200028e565b6200026f565b905082815260208101848484011115620003265762000325620001f4565b5b62000333848285620002c4565b509392505050565b600082601f830112620003535762000352620001ef565b5b815162000365848260208601620002f0565b91505092915050565b600080600080608085870312156200038b576200038a620001e5565b5b600085015167ffffffffffffffff811115620003ac57620003ab620001ea565b5b620003ba878288016200033b565b945050602085015167ffffffffffffffff811115620003de57620003dd620001ea565b5b620003ec878288016200033b565b935050604085015167ffffffffffffffff81111562000410576200040f620001ea565b5b6200041e878288016200033b565b925050606085015167ffffffffffffffff811115620004425762000441620001ea565b5b62000450878288016200033b565b91505092959194509250565b600081519050919050565b7f4e487b7100000000000000000000000000000000000000000000000000000000600052602260045260246000fd5b60006002820490506001821680620004af57607f821691505b602082108103620004c557620004c462000467565b5b50919050565b60008190508160005260206000209050919050565b60006020601f8301049050919050565b600082821b905092915050565b6000600883026200052f7fffffffffffffffffffffffffffffffffffffffffffffffffffffffffffffffff82620004f0565b6200053b8683620004f0565b95508019841693508086168417925050509392505050565b6000819050919050565b6000819050919050565b600062000588620005826200057c8462000553565b6200055d565b62000553565b9050919050565b6000819050919050565b620005a48362000567565b620005bc620005b3826200058f565b848454620004fd565b825550505050565b600090565b620005d3620005c4565b620005e081848462000599565b505050565b5b818110156200060857620005fc600082620005c9565b600181019050620005e6565b5050565b601f82111562000657576200062181620004cb565b6200062c84620004e0565b810160208510156200063c578190505b620006546200064b85620004e0565b830182620005e5565b50505b505050565b600082821c905092915050565b60006200067c600019846008026200065c565b1980831691505092915050565b600062000697838362000669565b9150826002028217905092915050565b620006b2826200045c565b67ffffffffffffffff811115620006ce57620006cd6200020a565b5b620006da825462000496565b620006e78282856200060c565b600060209050601f8311600181146200071f57600084156200070a578287015190505b62000716858262000689565b86555062000786565b601f1984166200072f86620004cb565b60005b82811015620007595784890151825560018201915060208501945060208101905062000732565b8683101562000779578489015162000775601f89168262000669565b8355505b6001600288020188555050505b505050505050565b600073ffffffffffffffffffffffffffffffffffffffff82169050919050565b6000620007bb826200078e565b9050919050565b620007cd81620007ae565b82525050565b6000602082019050620007ea6000830184620007c2565b92915050565b612a3780620008006000396000f3fe608060405234801561001057600080fd5b50600436106101375760003560e01c8063715018a6116100b8578063b88d4fde1161007c578063b88d4fde1461033c578063c4cbcffe14610358578063c87b56dd14610374578063d0def521146103a4578063e985e9c5146103d4578063f2fde38b1461040457610137565b8063715018a6146102bc57806375624cb9146102c65780638da5cb5b146102e457806395d89b4114610302578063a22cb4651461032057610137565b806323b872dd116100ff57806323b872dd146101f457806342842e0e146102105780636352211e1461022c5780636536914c1461025c57806370a082311461028c57610137565b806301ffc9a71461013c57806306fdde031461016c578063081812fc1461018a578063095ea7b3146101ba5780631a092541146101d6575b600080fd5b61015660048036038101906101519190611e23565b610420565b6040516101639190611e6b565b60405180910390f35b610174610481565b6040516101819190611f16565b60405180910390f35b6101a4600480360381019061019f9190611f6e565b610513565b6040516101b19190611fdc565b60405180910390f35b6101d460048036038101906101cf9190612023565b61052f565b005b6101de610545565b6040516101eb9190611f16565b60405180910390f35b61020e60048036038101906102099190612063565b6105d7565b005b61022a60048036038101906102259190612063565b6106d9565b005b61024660048036038101906102419190611f6e565b6106f9565b6040516102539190611fdc565b60405180910390f35b610276600480360381019061027191906121eb565b61070b565b6040516102839190612256565b60405180910390f35b6102a660048036038101906102a19190612271565b61081e565b6040516102b39190612256565b60405180910390f35b6102c46108d8565b005b6102ce6108ec565b6040516102db9190611fdc565b60405180910390f35b6102ec610912565b6040516102f99190611fdc565b60405180910390f35b61030a61093c565b6040516103179190611f16565b60405180910390f35b61033a600480360381019061033591906122ca565b6109ce565b005b610356600480360381019061035191906123ab565b6109e4565b005b610372600480360381019061036d9190612271565b610a09565b005b61038e60048036038101906103899190611f6e565b610a55565b60405161039b9190611f16565b60405180910390f35b6103be60048036038101906103b991906121eb565b610b68565b6040516103cb9190612256565b60405180910390f35b6103ee60048036038101906103e9919061242e565b610bf3565b6040516103fb9190611e6b565b60405180910390f35b61041e60048036038101906104199190612271565b610c87565b005b6000634906490660e01b7bffffffffffffffffffffffffffffffffffffffffffffffffffffffff1916827bffffffffffffffffffffffffffffffffffffffffffffffffffffffff1916148061047a575061047982610d0d565b5b9050919050565b6060600080546104909061249d565b80601f01602080910402602001604051908101604052809291908181526020018280546104bc9061249d565b80156105095780601f106104de57610100808354040283529160200191610509565b820191906000526020600020905b8154815290600101906020018083116104ec57829003601f168201915b5050505050905090565b600061051e82610def565b5061052882610e77565b9050919050565b610541828261053c610eb4565b610ebc565b5050565b6060600980546105549061249d565b80601f01602080910402602001604051908101604052809291908181526020018280546105809061249d565b80156105cd5780601f106105a2576101008083540402835291602001916105cd565b820191906000526020600020905b8154815290600101906020018083116105b057829003601f168201915b5050505050905090565b600073ffffffffffffffffffffffffffffffffffffffff168273ffffffffffffffffffffffffffffffffffffffff16036106495760006040517f64a0ae920000000000000000000000000000000000000000000000000000000081526004016106409190611fdc565b60405180910390fd5b600061065d8383610658610eb4565b610ece565b90508373ffffffffffffffffffffffffffffffffffffffff168173ffffffffffffffffffffffffffffffffffffffff16146106d3578382826040517f64283d7b0000000000000000000000000000000000000000000000000000000081526004016106ca939291906124ce565b60405180910390fd5b50505050565b6106f4838383604051806020016040528060008152506109e4565b505050565b600061070482610def565b9050919050565b6000600b60009054906101000a900473ffffffffffffffffffffffffffffffffffffffff1673ffffffffffffffffffffffffffffffffffffffff163373ffffffffffffffffffffffffffffffffffffffff161461079d576040517f08c379a000000000000000000000000000000000000000000000000000000000815260040161079490612551565b60405180910390fd5b600860008154809291906107b0906125a0565b9190505550600060085490506107c684826110e8565b6107d081846111e1565b808473ffffffffffffffffffffffffffffffffffffffff167f4cc0a9c4a99ddc700de1af2c9f916a7cbfdb71f14801ccff94061ad1ef8a804060405160405180910390a38091505092915050565b60008073ffffffffffffffffffffffffffffffffffffffff168273ffffffffffffffffffffffffffffffffffffffff16036108915760006040517f89c62b640000000000000000000000000000000000000000000000000000000081526004016108889190611fdc565b60405180910390fd5b600360008373ffffffffffffffffffffffffffffffffffffffff1673ffffffffffffffffffffffffffffffffffffffff168152602001908152602001600020549050919050565b6108e061123d565b6108ea60006112c4565b565b600b60009054906101000a900473ffffffffffffffffffffffffffffffffffffffff1681565b6000600760009054906101000a900473ffffffffffffffffffffffffffffffffffffffff16905090565b60606001805461094b9061249d565b80601f01602080910402602001604051908101604052809291908181526020018280546109779061249d565b80156109c45780601f10610999576101008083540402835291602001916109c4565b820191906000526020600020905b8154815290600101906020018083116109a757829003601f168201915b5050505050905090565b6109e06109d9610eb4565b838361138a565b5050565b6109ef8484846105d7565b610a036109fa610eb4565b858585856114f9565b50505050565b610a1161123d565b80600b60006101000a81548173ffffffffffffffffffffffffffffffffffffffff021916908373ffffffffffffffffffffffffffffffffffffffff16021790555050565b6060610a6082610def565b506000600660008481526020019081526020016000208054610a819061249d565b80601f0160208091040260200160405190810160405280929190818152602001828054610aad9061249d565b8015610afa5780601f10610acf57610100808354040283529160200191610afa565b820191906000526020600020905b815481529060010190602001808311610add57829003601f168201915b505050505090506000610b0b6116aa565b90506000815103610b20578192505050610b63565b600082511115610b55578082604051602001610b3d929190612624565b60405160208183030381529060405292505050610b63565b610b5e8461173c565b925050505b919050565b6000610b7261123d565b60086000815480929190610b85906125a0565b919050555060006008549050610b9b84826110e8565b610ba581846111e1565b808473ffffffffffffffffffffffffffffffffffffffff167f4cc0a9c4a99ddc700de1af2c9f916a7cbfdb71f14801ccff94061ad1ef8a804060405160405180910390a38091505092915050565b6000600560008473ffffffffffffffffffffffffffffffffffffffff1673ffffffffffffffffffffffffffffffffffffffff16815260200190815260200160002060008373ffffffffffffffffffffffffffffffffffffffff1673ffffffffffffffffffffffffffffffffffffffff16815260200190815260200160002060009054906101000a900460ff16905092915050565b610c8f61123d565b600073ffffffffffffffffffffffffffffffffffffffff168173ffffffffffffffffffffffffffffffffffffffff1603610d015760006040517f1e4fbdf7000000000000000000000000000000000000000000000000000000008152600401610cf89190611fdc565b60405180910390fd5b610d0a816112c4565b50565b60007f80ac58cd000000000000000000000000000000000000000000000000000000007bffffffffffffffffffffffffffffffffffffffffffffffffffffffff1916827bffffffffffffffffffffffffffffffffffffffffffffffffffffffff19161480610dd857507f5b5e139f000000000000000000000000000000000000000000000000000000007bffffffffffffffffffffffffffffffffffffffffffffffffffffffff1916827bffffffffffffffffffffffffffffffffffffffffffffffffffffffff1916145b80610de85750610de7826117a5565b5b9050919050565b600080610dfb8361180f565b9050600073ffffffffffffffffffffffffffffffffffffffff168173ffffffffffffffffffffffffffffffffffffffff1603610e6e57826040517f7e273289000000000000000000000000000000000000000000000000000000008152600401610e659190612256565b60405180910390fd5b80915050919050565b60006004600083815260200190815260200160002060009054906101000a900473ffffffffffffffffffffffffffffffffffffffff169050919050565b600033905090565b610ec9838383600161184c565b505050565b600080610eda8461180f565b9050600073ffffffffffffffffffffffffffffffffffffffff168373ffffffffffffffffffffffffffffffffffffffff1614610f1c57610f1b818486611a11565b5b600073ffffffffffffffffffffffffffffffffffffffff168173ffffffffffffffffffffffffffffffffffffffff1614610fad57610f5e60008560008061184c565b6001600360008373ffffffffffffffffffffffffffffffffffffffff1673ffffffffffffffffffffffffffffffffffffffff168152602001908152602001600020600082825403925050819055505b600073ffffffffffffffffffffffffffffffffffffffff168573ffffffffffffffffffffffffffffffffffffffff1614611030576001600360008773ffffffffffffffffffffffffffffffffffffffff1673ffffffffffffffffffffffffffffffffffffffff168152602001908152602001600020600082825401925050819055505b846002600086815260200190815260200160002060006101000a81548173ffffffffffffffffffffffffffffffffffffffff021916908373ffffffffffffffffffffffffffffffffffffffff160217905550838573ffffffffffffffffffffffffffffffffffffffff168273ffffffffffffffffffffffffffffffffffffffff167fddf252ad1be2c89b69c2b068fc378daa952ba7f163c4a11628f55a4df523b3ef60405160405180910390a4809150509392505050565b600073ffffffffffffffffffffffffffffffffffffffff168273ffffffffffffffffffffffffffffffffffffffff160361115a5760006040517f64a0ae920000000000000000000000000000000000000000000000000000000081526004016111519190611fdc565b60405180910390fd5b600061116883836000610ece565b9050600073ffffffffffffffffffffffffffffffffffffffff168173ffffffffffffffffffffffffffffffffffffffff16146111dc5760006040517f73c6ac6e0000000000000000000000000000000000000000000000000000000081526004016111d39190611fdc565b60405180910390fd5b505050565b8060066000848152602001908152602001600020908161120191906127f4565b507ff8e1a15aba9398e019f0b49df1a4fde98ee17ae345cb5f6b5e2c27f5033e8ce7826040516112319190612256565b60405180910390a15050565b611245610eb4565b73ffffffffffffffffffffffffffffffffffffffff16611263610912565b73ffffffffffffffffffffffffffffffffffffffff16146112c257611286610eb4565b6040517f118cdaa70000000000000000000000000000000000000000000000000000000081526004016112b99190611fdc565b60405180910390fd5b565b6000600760009054906101000a900473ffffffffffffffffffffffffffffffffffffffff16905081600760006101000a81548173ffffffffffffffffffffffffffffffffffffffff021916908373ffffffffffffffffffffffffffffffffffffffff1602179055508173ffffffffffffffffffffffffffffffffffffffff168173ffffffffffffffffffffffffffffffffffffffff167f8be0079c531659141344cd1fd0a4f28419497f9722a3daafe3b4186f6b6457e060405160405180910390a35050565b600073ffffffffffffffffffffffffffffffffffffffff168273ffffffffffffffffffffffffffffffffffffffff16036113fb57816040517f5b08ba180000000000000000000000000000000000000000000000000000000081526004016113f29190611fdc565b60405180910390fd5b80600560008573ffffffffffffffffffffffffffffffffffffffff1673ffffffffffffffffffffffffffffffffffffffff16815260200190815260200160002060008473ffffffffffffffffffffffffffffffffffffffff1673ffffffffffffffffffffffffffffffffffffffff16815260200190815260200160002060006101000a81548160ff0219169083151502179055508173ffffffffffffffffffffffffffffffffffffffff168373ffffffffffffffffffffffffffffffffffffffff167f17307eab39ab6107e8899845ad3d59bd9653f200f220920489ca2b5937696c31836040516114ec9190611e6b565b60405180910390a3505050565b60008373ffffffffffffffffffffffffffffffffffffffff163b11156116a3578273ffffffffffffffffffffffffffffffffffffffff1663150b7a02868685856040518563ffffffff1660e01b8152600401611558949392919061291b565b6020604051808303816000875af192505050801561159457506040513d601f19601f82011682018060405250810190611591919061297c565b60015b611618573d80600081146115c4576040519150601f19603f3d011682016040523d82523d6000602084013e6115c9565b606091505b50600081510361161057836040517f64a0ae920000000000000000000000000000000000000000000000000000000081526004016116079190611fdc565b60405180910390fd5b805181602001fd5b63150b7a0260e01b7bffffffffffffffffffffffffffffffffffffffffffffffffffffffff1916817bffffffffffffffffffffffffffffffffffffffffffffffffffffffff1916146116a157836040517f64a0ae920000000000000000000000000000000000000000000000000000000081526004016116989190611fdc565b60405180910390fd5b505b5050505050565b6060600a80546116b99061249d565b80601f01602080910402602001604051908101604052809291908181526020018280546116e59061249d565b80156117325780601f1061170757610100808354040283529160200191611732565b820191906000526020600020905b81548152906001019060200180831161171557829003601f168201915b5050505050905090565b606061174782610def565b5060006117526116aa565b90506000815111611772576040518060200160405280600081525061179d565b8061177c84611ad5565b60405160200161178d929190612624565b6040516020818303038152906040525b915050919050565b60007f01ffc9a7000000000000000000000000000000000000000000000000000000007bffffffffffffffffffffffffffffffffffffffffffffffffffffffff1916827bffffffffffffffffffffffffffffffffffffffffffffffffffffffff1916149050919050565b60006002600083815260200190815260200160002060009054906101000a900473ffffffffffffffffffffffffffffffffffffffff169050919050565b80806118855750600073ffffffffffffffffffffffffffffffffffffffff168273ffffffffffffffffffffffffffffffffffffffff1614155b156119b957600061189584610def565b9050600073ffffffffffffffffffffffffffffffffffffffff168373ffffffffffffffffffffffffffffffffffffffff161415801561190057508273ffffffffffffffffffffffffffffffffffffffff168173ffffffffffffffffffffffffffffffffffffffff1614155b801561191357506119118184610bf3565b155b1561195557826040517fa9fbf51f00000000000000000000000000000000000000000000000000000000815260040161194c9190611fdc565b60405180910390fd5b81156119b757838573ffffffffffffffffffffffffffffffffffffffff168273ffffffffffffffffffffffffffffffffffffffff167f8c5be1e5ebec7d5bd14f71427d1e84f3dd0314c0f7b2291e5b200ac8c7c3b92560405160405180910390a45b505b836004600085815260200190815260200160002060006101000a81548173ffffffffffffffffffffffffffffffffffffffff021916908373ffffffffffffffffffffffffffffffffffffffff16021790555050505050565b611a1c838383611ba3565b611ad057600073ffffffffffffffffffffffffffffffffffffffff168373ffffffffffffffffffffffffffffffffffffffff1603611a9157806040517f7e273289000000000000000000000000000000000000000000000000000000008152600401611a889190612256565b60405180910390fd5b81816040517f177e802f000000000000000000000000000000000000000000000000000000008152600401611ac79291906129a9565b60405180910390fd5b505050565b606060006001611ae484611c64565b01905060008167ffffffffffffffff811115611b0357611b026120c0565b5b6040519080825280601f01601f191660200182016040528015611b355781602001600182028036833780820191505090505b509050600082602001820190505b600115611b98578080600190039150507f3031323334353637383961626364656600000000000000000000000000000000600a86061a8153600a8581611b8c57611b8b6129d2565b5b04945060008503611b43575b819350505050919050565b60008073ffffffffffffffffffffffffffffffffffffffff168373ffffffffffffffffffffffffffffffffffffffff1614158015611c5b57508273ffffffffffffffffffffffffffffffffffffffff168473ffffffffffffffffffffffffffffffffffffffff161480611c1c5750611c1b8484610bf3565b5b80611c5a57508273ffffffffffffffffffffffffffffffffffffffff16611c4283610e77565b73ffffffffffffffffffffffffffffffffffffffff16145b5b90509392505050565b600080600090507a184f03e93ff9f4daa797ed6e38ed64bf6a1f0100000000000000008310611cc2577a184f03e93ff9f4daa797ed6e38ed64bf6a1f0100000000000000008381611cb857611cb76129d2565b5b0492506040810190505b6d04ee2d6d415b85acef81000000008310611cff576d04ee2d6d415b85acef81000000008381611cf557611cf46129d2565b5b0492506020810190505b662386f26fc100008310611d2e57662386f26fc100008381611d2457611d236129d2565b5b0492506010810190505b6305f5e1008310611d57576305f5e1008381611d4d57611d4c6129d2565b5b0492506008810190505b6127108310611d7c576127108381611d7257611d716129d2565b5b0492506004810190505b60648310611d9f5760648381611d9557611d946129d2565b5b0492506002810190505b600a8310611dae576001810190505b80915050919050565b6000604051905090565b600080fd5b600080fd5b60007fffffffff0000000000000000000000000000000000000000000000000000000082169050919050565b611e0081611dcb565b8114611e0b57600080fd5b50565b600081359050611e1d81611df7565b92915050565b600060208284031215611e3957611e38611dc1565b5b6000611e4784828501611e0e565b91505092915050565b60008115159050919050565b611e6581611e50565b82525050565b6000602082019050611e806000830184611e5c565b92915050565b600081519050919050565b600082825260208201905092915050565b60005b83811015611ec0578082015181840152602081019050611ea5565b60008484015250505050565b6000601f19601f8301169050919050565b6000611ee882611e86565b611ef28185611e91565b9350611f02818560208601611ea2565b611f0b81611ecc565b840191505092915050565b60006020820190508181036000830152611f308184611edd565b905092915050565b6000819050919050565b611f4b81611f38565b8114611f5657600080fd5b50565b600081359050611f6881611f42565b92915050565b600060208284031215611f8457611f83611dc1565b5b6000611f9284828501611f59565b91505092915050565b600073ffffffffffffffffffffffffffffffffffffffff82169050919050565b6000611fc682611f9b565b9050919050565b611fd681611fbb565b82525050565b6000602082019050611ff16000830184611fcd565b92915050565b61200081611fbb565b811461200b57600080fd5b50565b60008135905061201d81611ff7565b92915050565b6000806040838503121561203a57612039611dc1565b5b60006120488582860161200e565b925050602061205985828601611f59565b9150509250929050565b60008060006060848603121561207c5761207b611dc1565b5b600061208a8682870161200e565b935050602061209b8682870161200e565b92505060406120ac86828701611f59565b9150509250925092565b600080fd5b600080fd5b7f4e487b7100000000000000000000000000000000000000000000000000000000600052604160045260246000fd5b6120f882611ecc565b810181811067ffffffffffffffff82111715612117576121166120c0565b5b80604052505050565b600061212a611db7565b905061213682826120ef565b919050565b600067ffffffffffffffff821115612156576121556120c0565b5b61215f82611ecc565b9050602081019050919050565b82818337600083830152505050565b600061218e6121898461213b565b612120565b9050828152602081018484840111156121aa576121a96120bb565b5b6121b584828561216c565b509392505050565b600082601f8301126121d2576121d16120b6565b5b81356121e284826020860161217b565b91505092915050565b6000806040838503121561220257612201611dc1565b5b60006122108582860161200e565b925050602083013567ffffffffffffffff81111561223157612230611dc6565b5b61223d858286016121bd565b9150509250929050565b61225081611f38565b82525050565b600060208201905061226b6000830184612247565b92915050565b60006020828403121561228757612286611dc1565b5b60006122958482850161200e565b91505092915050565b6122a781611e50565b81146122b257600080fd5b50565b6000813590506122c48161229e565b92915050565b600080604083850312156122e1576122e0611dc1565b5b60006122ef8582860161200e565b9250506020612300858286016122b5565b9150509250929050565b600067ffffffffffffffff821115612325576123246120c0565b5b61232e82611ecc565b9050602081019050919050565b600061234e6123498461230a565b612120565b90508281526020810184848401111561236a576123696120bb565b5b61237584828561216c565b509392505050565b600082601f830112612392576123916120b6565b5b81356123a284826020860161233b565b91505092915050565b600080600080608085870312156123c5576123c4611dc1565b5b60006123d38782880161200e565b94505060206123e48782880161200e565b93505060406123f587828801611f59565b925050606085013567ffffffffffffffff81111561241657612415611dc6565b5b6124228782880161237d565b91505092959194509250565b6000806040838503121561244557612444611dc1565b5b60006124538582860161200e565b92505060206124648582860161200e565b9150509250929050565b7f4e487b7100000000000000000000000000000000000000000000000000000000600052602260045260246000fd5b600060028204905060018216806124b557607f821691505b6020821081036124c8576124c761246e565b5b50919050565b60006060820190506124e36000830186611fcd565b6124f06020830185612247565b6124fd6040830184611fcd565b949350505050565b7f4f6e6c7920646f6e6174696f6e20636f6e74726163742063616e206d696e7400600082015250565b600061253b601f83611e91565b915061254682612505565b602082019050919050565b6000602082019050818103600083015261256a8161252e565b9050919050565b7f4e487b7100000000000000000000000000000000000000000000000000000000600052601160045260246000fd5b60006125ab82611f38565b91507fffffffffffffffffffffffffffffffffffffffffffffffffffffffffffffffff82036125dd576125dc612571565b5b600182019050919050565b600081905092915050565b60006125fe82611e86565b61260881856125e8565b9350612618818560208601611ea2565b80840191505092915050565b600061263082856125f3565b915061263c82846125f3565b91508190509392505050565b60008190508160005260206000209050919050565b60006020601f8301049050919050565b600082821b905092915050565b6000600883026126aa7fffffffffffffffffffffffffffffffffffffffffffffffffffffffffffffffff8261266d565b6126b4868361266d565b95508019841693508086168417925050509392505050565b6000819050919050565b60006126f16126ec6126e784611f38565b6126cc565b611f38565b9050919050565b6000819050919050565b61270b836126d6565b61271f612717826126f8565b84845461267a565b825550505050565b600090565b612734612727565b61273f818484612702565b505050565b5b818110156127635761275860008261272c565b600181019050612745565b5050565b601f8211156127a85761277981612648565b6127828461265d565b81016020851015612791578190505b6127a561279d8561265d565b830182612744565b50505b505050565b600082821c905092915050565b60006127cb600019846008026127ad565b1980831691505092915050565b60006127e483836127ba565b9150826002028217905092915050565b6127fd82611e86565b67ffffffffffffffff811115612816576128156120c0565b5b612820825461249d565b61282b828285612767565b600060209050601f83116001811461285e576000841561284c578287015190505b61285685826127d8565b8655506128be565b601f19841661286c86612648565b60005b828110156128945784890151825560018201915060208501945060208101905061286f565b868310156128b157848901516128ad601f8916826127ba565b8355505b6001600288020188555050505b505050505050565b600081519050919050565b600082825260208201905092915050565b60006128ed826128c6565b6128f781856128d1565b9350612907818560208601611ea2565b61291081611ecc565b840191505092915050565b60006080820190506129306000830187611fcd565b61293d6020830186611fcd565b61294a6040830185612247565b818103606083015261295c81846128e2565b905095945050505050565b60008151905061297681611df7565b92915050565b60006020828403121561299257612991611dc1565b5b60006129a084828501612967565b91505092915050565b60006040820190506129be6000830185611fcd565b6129cb6020830184612247565b9392505050565b7f4e487b7100000000000000000000000000000000000000000000000000000000600052601260045260246000fdfea2646970667358221220a2a288dead720a295062fea0b921c1785d58692ef91c0e399e48d26e6dc7e90b64736f6c63430008140033",
  "linkReferences": {},
  "deployedLinkReferences": {}
}