{
  "_format": "hh-sol-artifact-1",
  "contractName": "TheLabDonations",
  "sourceName": "contracts/TheLabDonations.sol",
  "abi": [
    {
      "inputs": [
        {
          "internalType": "address",
          "name": "_nftContract",
          "type": "address"
        },
        {
          "internalType": "uint256",
          "name": "_minimumDonation",
          "type": "uint256"
        },
        {
          "internalType": "string",
          "name": "_nftTokenURI",
          "type": "string"
        },
        {
          "internalType": "address",
          "name": "_usdcToken",
          "type": "address"
        },
        {
          "internalType": "uint256",
          "name": "_minimumUsdcDonation",
          "type": "uint256"
        }
      ],
      "stateMutability": "nonpayable",
      "type": "constructor"
    },
    {
      "inputs": [
        {
          "internalType": "address",
          "name": "owner",
          "type": "address"
        }
      ],
      "name": "OwnableInvalidOwner",
      "type": "error"
    },
    {
      "inputs": [
        {
          "internalType": "address",
          "name": "account",
          "type": "address"
        }
      ],
      "name": "OwnableUnauthorizedAccount",
      "type": "error"
    },
    {
      "anonymous": false,
      "inputs": [
        {
          "indexed": true,
          "internalType": "address",
          "name": "donor",
          "type": "address"
        },
        {
          "indexed": false,
          "internalType": "uint256",
          "name": "amount",
          "type": "uint256"
        },
        {
          "indexed": false,
          "internalType": "string",
          "name": "currency",
          "type": "string"
        }
      ],
      "name": "DonationReceived",
      "type": "event"
    },
    {
      "anonymous": false,
      "inputs": [
        {
          "indexed": true,
          "internalType": "address",
          "name": "donor",
          "type": "address"
        },
        {
          "indexed": false,
          "internalType": "string",
          "name": "reason",
          "type": "string"
        }
      ],
      "name": "NFTMintError",
      "type": "event"
    },
    {
      "anonymous": false,
      "inputs": [
        {
          "indexed": true,
          "internalType": "address",
          "name": "donor",
          "type": "address"
        },
        {
          "indexed": false,
          "internalType": "uint256",
          "name": "tokenId",
          "type": "uint256"
        }
      ],
      "name": "NFTMinted",
      "type": "event"
    },
    {
      "anonymous": false,
      "inputs": [
        {
          "indexed": true,
          "internalType": "address",
          "name": "previousOwner",
          "type": "address"
        },
        {
          "indexed": true,
          "internalType": "address",
          "name": "newOwner",
          "type": "address"
        }
      ],
      "name": "OwnershipTransferred",
      "type": "event"
    },
    {
      "anonymous": false,
      "inputs": [
        {
          "indexed": true,
          "internalType": "address",
          "name": "donor",
          "type": "address"
        },
        {
          "indexed": false,
          "internalType": "uint256",
          "name": "amount",
          "type": "uint256"
        }
      ],
      "name": "UsdcDonationReceived",
      "type": "event"
    },
    {
      "inputs": [
        {
          "internalType": "uint256",
          "name": "amount",
          "type": "uint256"
        }
      ],
      "name": "donateUsdc",
      "outputs": [],
      "stateMutability": "nonpayable",
      "type": "function"
    },
    {
      "inputs": [],
      "name": "minimumDonation",
      "outputs": [
        {
          "internalType": "uint256",
          "name": "",
          "type": "uint256"
        }
      ],
      "stateMutability": "view",
      "type": "function"
    },
    {
      "inputs": [],
      "name": "minimumUsdcDonation",
      "outputs": [
        {
          "internalType": "uint256",
          "name": "",
          "type": "uint256"
        }
      ],
      "stateMutability": "view",
      "type": "function"
    },
    {
      "inputs": [],
      "name": "nftContract",
      "outputs": [
        {
          "internalType": "contract TheLabNFT",
          "name": "",
          "type": "address"
        }
      ],
      "stateMutability": "view",
      "type": "function"
    },
    {
      "inputs": [],
      "name": "nftTokenURI",
      "outputs": [
        {
          "internalType": "string",
          "name": "",
          "type": "string"
        }
      ],
      "stateMutability": "view",
      "type": "function"
    },
    {
      "inputs": [],
      "name": "owner",
      "outputs": [
        {
          "internalType": "address",
          "name": "",
          "type": "address"
        }
      ],
      "stateMutability": "view",
      "type": "function"
    },
    {
      "inputs": [],
      "name": "recipient",
      "outputs": [
        {
          "internalType": "address",
          "name": "",
          "type": "address"
        }
      ],
      "stateMutability": "view",
      "type": "function"
    },
    {
      "inputs": [],
      "name": "renounceOwnership",
      "outputs": [],
      "stateMutability": "nonpayable",
      "type": "function"
    },
    {
      "inputs": [
        {
          "internalType": "uint256",
          "name": "_minimumDonation",
          "type": "uint256"
        }
      ],
      "name": "setMinimumDonation",
      "outputs": [],
      "stateMutability": "nonpayable",
      "type": "function"
    },
    {
      "inputs": [
        {
          "internalType": "uint256",
          "name": "_minimumUsdcDonation",
          "type": "uint256"
        }
      ],
      "name": "setMinimumUsdcDonation",
      "outputs": [],
      "stateMutability": "nonpayable",
      "type": "function"
    },
    {
      "inputs": [
        {
          "internalType": "string",
          "name": "_nftTokenURI",
          "type": "string"
        }
      ],
      "name": "setNFTTokenURI",
      "outputs": [],
      "stateMutability": "nonpayable",
      "type": "function"
    },
    {
      "inputs": [
        {
          "internalType": "address",
          "name": "newOwner",
          "type": "address"
        }
      ],
      "name": "transferOwnership",
      "outputs": [],
      "stateMutability": "nonpayable",
      "type": "function"
    },
    {
      "inputs": [],
      "name": "usdcToken",
      "outputs": [
        {
          "internalType": "contract IERC20",
          "name": "",
          "type": "address"
        }
      ],
      "stateMutability": "view",
      "type": "function"
    },
    {
      "inputs": [],
      "name": "withdraw",
      "outputs": [],
      "stateMutability": "nonpayable",
      "type": "function"
    },
    {
      "inputs": [],
      "name": "withdrawUsdc",
      "outputs": [],
      "stateMutability": "nonpayable",
      "type": "function"
    },
    {
      "stateMutability": "payable",
      "type": "receive"
    }
  ],
  "bytecode": "0x60806040523480156200001157600080fd5b506040516200245138038062002451833981810160405281019062000037919062000463565b33600073ffffffffffffffffffffffffffffffffffffffff168173ffffffffffffffffffffffffffffffffffffffff1603620000ad5760006040517f1e4fbdf7000000000000000000000000000000000000000000000000000000008152600401620000a491906200051b565b60405180910390fd5b620000be816200016c60201b60201c565b5084600160006101000a81548173ffffffffffffffffffffffffffffffffffffffff021916908373ffffffffffffffffffffffffffffffffffffffff16021790555083600281905550826003908162000118919062000779565b5081600460006101000a81548173ffffffffffffffffffffffffffffffffffffffff021916908373ffffffffffffffffffffffffffffffffffffffff16021790555080600581905550505050505062000860565b60008060009054906101000a900473ffffffffffffffffffffffffffffffffffffffff169050816000806101000a81548173ffffffffffffffffffffffffffffffffffffffff021916908373ffffffffffffffffffffffffffffffffffffffff1602179055508173ffffffffffffffffffffffffffffffffffffffff168173ffffffffffffffffffffffffffffffffffffffff167f8be0079c531659141344cd1fd0a4f28419497f9722a3daafe3b4186f6b6457e060405160405180910390a35050565b6000604051905090565b600080fd5b600080fd5b600073ffffffffffffffffffffffffffffffffffffffff82169050919050565b6000620002718262000244565b9050919050565b620002838162000264565b81146200028f57600080fd5b50565b600081519050620002a38162000278565b92915050565b6000819050919050565b620002be81620002a9565b8114620002ca57600080fd5b50565b600081519050620002de81620002b3565b92915050565b600080fd5b600080fd5b6000601f19601f8301169050919050565b7f4e487b7100000000000000000000000000000000000000000000000000000000600052604160045260246000fd5b6200033982620002ee565b810181811067ffffffffffffffff821117156200035b576200035a620002ff565b5b80604052505050565b60006200037062000230565b90506200037e82826200032e565b919050565b600067ffffffffffffffff821115620003a157620003a0620002ff565b5b620003ac82620002ee565b9050602081019050919050565b60005b83811015620003d9578082015181840152602081019050620003bc565b60008484015250505050565b6000620003fc620003f68462000383565b62000364565b9050828152602081018484840111156200041b576200041a620002e9565b5b62000428848285620003b9565b509392505050565b600082601f830112620004485762000447620002e4565b5b81516200045a848260208601620003e5565b91505092915050565b600080600080600060a086880312156200048257620004816200023a565b5b6000620004928882890162000292565b9550506020620004a588828901620002cd565b945050604086015167ffffffffffffffff811115620004c957620004c86200023f565b5b620004d78882890162000430565b9350506060620004ea8882890162000292565b9250506080620004fd88828901620002cd565b9150509295509295909350565b620005158162000264565b82525050565b60006020820190506200053260008301846200050a565b92915050565b600081519050919050565b7f4e487b7100000000000000000000000000000000000000000000000000000000600052602260045260246000fd5b600060028204905060018216806200058b57607f821691505b602082108103620005a157620005a062000543565b5b50919050565b60008190508160005260206000209050919050565b60006020601f8301049050919050565b600082821b905092915050565b6000600883026200060b7fffffffffffffffffffffffffffffffffffffffffffffffffffffffffffffffff82620005cc565b620006178683620005cc565b95508019841693508086168417925050509392505050565b6000819050919050565b60006200065a620006546200064e84620002a9565b6200062f565b620002a9565b9050919050565b6000819050919050565b620006768362000639565b6200068e620006858262000661565b848454620005d9565b825550505050565b600090565b620006a562000696565b620006b28184846200066b565b505050565b5b81811015620006da57620006ce6000826200069b565b600181019050620006b8565b5050565b601f8211156200072957620006f381620005a7565b620006fe84620005bc565b810160208510156200070e578190505b620007266200071d85620005bc565b830182620006b7565b50505b505050565b600082821c905092915050565b60006200074e600019846008026200072e565b1980831691505092915050565b60006200076983836200073b565b9150826002028217905092915050565b620007848262000538565b67ffffffffffffffff811115620007a0576200079f620002ff565b5b620007ac825462000572565b620007b9828285620006de565b600060209050601f831160018114620007f15760008415620007dc578287015190505b620007e885826200075b565b86555062000858565b601f1984166200080186620005a7565b60005b828110156200082b5784890151825560018201915060208501945060208101905062000804565b868310156200084b578489015162000847601f8916826200073b565b8355505b6001600288020188555050505b505050505050565b611be180620008706000396000f3fe6080604052600436106100ec5760003560e01c80638da5cb5b1161008a578063c9c6da5111610059578063c9c6da51146105b3578063d56d229d146105dc578063f2fde38b14610607578063fee84d4e1461063057610403565b80638da5cb5b14610509578063966221971461053457806396d8f4f31461055f578063c63172471461058a57610403565b806366d003ac116100c657806366d003ac146104755780636e70f096146104a0578063715018a6146104c95780637f7c6bfc146104e057610403565b806311eac855146104085780633ccfd60b146104335780634560dab91461044a57610403565b3661040357600254341015610136576040517f08c379a000000000000000000000000000000000000000000000000000000000815260040161012d90610f28565b60405180910390fd5b6000735af876e2da6f8324b5ac866b0c7e73c619c95dc873ffffffffffffffffffffffffffffffffffffffff163460405161017090610f79565b60006040518083038185875af1925050503d80600081146101ad576040519150601f19603f3d011682016040523d82523d6000602084013e6101b2565b606091505b50509050806101f6576040517f08c379a00000000000000000000000000000000000000000000000000000000081526004016101ed90610fda565b60405180910390fd5b600160009054906101000a900473ffffffffffffffffffffffffffffffffffffffff1673ffffffffffffffffffffffffffffffffffffffff16636536914c3360036040518363ffffffff1660e01b8152600401610254929190611134565b6020604051808303816000875af192505050801561029057506040513d601f19601f8201168201806040525081019061028d91906111ae565b60015b6103635761029c6111e8565b806308c379a00361030f57506102b061127b565b806102bb5750610311565b3373ffffffffffffffffffffffffffffffffffffffff167fea20da9edbc855eed8d0c0a14aac2fe8f14ff7f6fb09c5041fa463798e3a71a9826040516103019190611379565b60405180910390a25061035e565b505b3373ffffffffffffffffffffffffffffffffffffffff167fea20da9edbc855eed8d0c0a14aac2fe8f14ff7f6fb09c5041fa463798e3a71a9604051610355906113e7565b60405180910390a25b6103b3565b3373ffffffffffffffffffffffffffffffffffffffff167f4cc0a9c4a99ddc700de1af2c9f916a7cbfdb71f14801ccff94061ad1ef8a8040826040516103a99190611416565b60405180910390a2505b3373ffffffffffffffffffffffffffffffffffffffff167ffa5658cbb5d60363acba0d281bddcf21cc9e7ea6053267531b4cdc36d5df7a8a346040516103f9919061147d565b60405180910390a2005b600080fd5b34801561041457600080fd5b5061041d610647565b60405161042a919061150a565b60405180910390f35b34801561043f57600080fd5b5061044861066d565b005b34801561045657600080fd5b5061045f6106c5565b60405161046c9190611379565b60405180910390f35b34801561048157600080fd5b5061048a610753565b6040516104979190611525565b60405180910390f35b3480156104ac57600080fd5b506104c760048036038101906104c29190611555565b61076b565b005b3480156104d557600080fd5b506104de61077d565b005b3480156104ec57600080fd5b5061050760048036038101906105029190611657565b610791565b005b34801561051557600080fd5b5061051e6107ac565b60405161052b9190611525565b60405180910390f35b34801561054057600080fd5b506105496107d5565b6040516105569190611416565b60405180910390f35b34801561056b57600080fd5b506105746107db565b6040516105819190611416565b60405180910390f35b34801561059657600080fd5b506105b160048036038101906105ac9190611555565b6107e1565b005b3480156105bf57600080fd5b506105da60048036038101906105d59190611555565b6107f3565b005b3480156105e857600080fd5b506105f1610b3b565b6040516105fe91906116c1565b60405180910390f35b34801561061357600080fd5b5061062e60048036038101906106299190611708565b610b61565b005b34801561063c57600080fd5b50610645610be7565b005b600460009054906101000a900473ffffffffffffffffffffffffffffffffffffffff1681565b610675610d78565b61067d6107ac565b73ffffffffffffffffffffffffffffffffffffffff166108fc479081150290604051600060405180830381858888f193505050501580156106c2573d6000803e3d6000fd5b50565b600380546106d29061106a565b80601f01602080910402602001604051908101604052809291908181526020018280546106fe9061106a565b801561074b5780601f106107205761010080835404028352916020019161074b565b820191906000526020600020905b81548152906001019060200180831161072e57829003601f168201915b505050505081565b735af876e2da6f8324b5ac866b0c7e73c619c95dc881565b610773610d78565b8060058190555050565b610785610d78565b61078f6000610dff565b565b610799610d78565b80600390816107a891906118c2565b5050565b60008060009054906101000a900473ffffffffffffffffffffffffffffffffffffffff16905090565b60055481565b60025481565b6107e9610d78565b8060028190555050565b600554811015610838576040517f08c379a000000000000000000000000000000000000000000000000000000000815260040161082f906119e0565b60405180910390fd5b600460009054906101000a900473ffffffffffffffffffffffffffffffffffffffff1673ffffffffffffffffffffffffffffffffffffffff166323b872dd33735af876e2da6f8324b5ac866b0c7e73c619c95dc8846040518463ffffffff1660e01b81526004016108ab93929190611a00565b6020604051808303816000875af11580156108ca573d6000803e3d6000fd5b505050506040513d601f19601f820116820180604052508101906108ee9190611a6f565b61092d576040517f08c379a000000000000000000000000000000000000000000000000000000000815260040161092490611ae8565b60405180910390fd5b600160009054906101000a900473ffffffffffffffffffffffffffffffffffffffff1673ffffffffffffffffffffffffffffffffffffffff16636536914c3360036040518363ffffffff1660e01b815260040161098b929190611134565b6020604051808303816000875af19250505080156109c757506040513d601f19601f820116820180604052508101906109c491906111ae565b60015b610a9a576109d36111e8565b806308c379a003610a4657506109e761127b565b806109f25750610a48565b3373ffffffffffffffffffffffffffffffffffffffff167fea20da9edbc855eed8d0c0a14aac2fe8f14ff7f6fb09c5041fa463798e3a71a982604051610a389190611379565b60405180910390a250610a95565b505b3373ffffffffffffffffffffffffffffffffffffffff167fea20da9edbc855eed8d0c0a14aac2fe8f14ff7f6fb09c5041fa463798e3a71a9604051610a8c906113e7565b60405180910390a25b610aea565b3373ffffffffffffffffffffffffffffffffffffffff167f4cc0a9c4a99ddc700de1af2c9f916a7cbfdb71f14801ccff94061ad1ef8a804082604051610ae09190611416565b60405180910390a2505b3373ffffffffffffffffffffffffffffffffffffffff167ffa5658cbb5d60363acba0d281bddcf21cc9e7ea6053267531b4cdc36d5df7a8a82604051610b309190611b54565b60405180910390a250565b600160009054906101000a900473ffffffffffffffffffffffffffffffffffffffff1681565b610b69610d78565b600073ffffffffffffffffffffffffffffffffffffffff168173ffffffffffffffffffffffffffffffffffffffff1603610bdb5760006040517f1e4fbdf7000000000000000000000000000000000000000000000000000000008152600401610bd29190611525565b60405180910390fd5b610be481610dff565b50565b610bef610d78565b6000600460009054906101000a900473ffffffffffffffffffffffffffffffffffffffff1673ffffffffffffffffffffffffffffffffffffffff166370a08231306040518263ffffffff1660e01b8152600401610c4c9190611525565b602060405180830381865afa158015610c69573d6000803e3d6000fd5b505050506040513d601f19601f82011682018060405250810190610c8d91906111ae565b9050600460009054906101000a900473ffffffffffffffffffffffffffffffffffffffff1673ffffffffffffffffffffffffffffffffffffffff1663a9059cbb610cd56107ac565b836040518363ffffffff1660e01b8152600401610cf3929190611b82565b6020604051808303816000875af1158015610d12573d6000803e3d6000fd5b505050506040513d601f19601f82011682018060405250810190610d369190611a6f565b610d75576040517f08c379a0000000000000000000000000000000000000000000000000000000008152600401610d6c90611ae8565b60405180910390fd5b50565b610d80610ec3565b73ffffffffffffffffffffffffffffffffffffffff16610d9e6107ac565b73ffffffffffffffffffffffffffffffffffffffff1614610dfd57610dc1610ec3565b6040517f118cdaa7000000000000000000000000000000000000000000000000000000008152600401610df49190611525565b60405180910390fd5b565b60008060009054906101000a900473ffffffffffffffffffffffffffffffffffffffff169050816000806101000a81548173ffffffffffffffffffffffffffffffffffffffff021916908373ffffffffffffffffffffffffffffffffffffffff1602179055508173ffffffffffffffffffffffffffffffffffffffff168173ffffffffffffffffffffffffffffffffffffffff167f8be0079c531659141344cd1fd0a4f28419497f9722a3daafe3b4186f6b6457e060405160405180910390a35050565b600033905090565b600082825260208201905092915050565b7f446f6e6174696f6e20616d6f756e7420746f6f206c6f77000000000000000000600082015250565b6000610f12601783610ecb565b9150610f1d82610edc565b602082019050919050565b60006020820190508181036000830152610f4181610f05565b9050919050565b600081905092915050565b50565b6000610f63600083610f48565b9150610f6e82610f53565b600082019050919050565b6000610f8482610f56565b9150819050919050565b7f4661696c656420746f2073656e642045544820746f20726563697069656e7400600082015250565b6000610fc4601f83610ecb565b9150610fcf82610f8e565b602082019050919050565b60006020820190508181036000830152610ff381610fb7565b9050919050565b600073ffffffffffffffffffffffffffffffffffffffff82169050919050565b600061102582610ffa565b9050919050565b6110358161101a565b82525050565b7f4e487b7100000000000000000000000000000000000000000000000000000000600052602260045260246000fd5b6000600282049050600182168061108257607f821691505b6020821081036110955761109461103b565b5b50919050565b60008190508160005260206000209050919050565b600081546110bd8161106a565b6110c78186610ecb565b945060018216600081146110e257600181146110f85761112b565b60ff19831686528115156020028601935061112b565b6111018561109b565b60005b8381101561112357815481890152600182019150602081019050611104565b808801955050505b50505092915050565b6000604082019050611149600083018561102c565b818103602083015261115b81846110b0565b90509392505050565b6000604051905090565b600080fd5b600080fd5b6000819050919050565b61118b81611178565b811461119657600080fd5b50565b6000815190506111a881611182565b92915050565b6000602082840312156111c4576111c361116e565b5b60006111d284828501611199565b91505092915050565b60008160e01c9050919050565b600060033d11156112075760046000803e6112046000516111db565b90505b90565b6000601f19601f8301169050919050565b7f4e487b7100000000000000000000000000000000000000000000000000000000600052604160045260246000fd5b6112538261120a565b810181811067ffffffffffffffff821117156112725761127161121b565b5b80604052505050565b600060443d106113085761128d611164565b60043d036004823e80513d602482011167ffffffffffffffff821117156112b5575050611308565b808201805167ffffffffffffffff8111156112d35750505050611308565b80602083010160043d0385018111156112f0575050505050611308565b6112ff8260200185018661124a565b82955050505050505b90565b600081519050919050565b60005b83811015611334578082015181840152602081019050611319565b60008484015250505050565b600061134b8261130b565b6113558185610ecb565b9350611365818560208601611316565b61136e8161120a565b840191505092915050565b600060208201905081810360008301526113938184611340565b905092915050565b7f556e6b6e6f776e206572726f7200000000000000000000000000000000000000600082015250565b60006113d1600d83610ecb565b91506113dc8261139b565b602082019050919050565b60006020820190508181036000830152611400816113c4565b9050919050565b61141081611178565b82525050565b600060208201905061142b6000830184611407565b92915050565b7f4554480000000000000000000000000000000000000000000000000000000000600082015250565b6000611467600383610ecb565b915061147282611431565b602082019050919050565b60006040820190506114926000830184611407565b81810360208301526114a38161145a565b905092915050565b6000819050919050565b60006114d06114cb6114c684610ffa565b6114ab565b610ffa565b9050919050565b60006114e2826114b5565b9050919050565b60006114f4826114d7565b9050919050565b611504816114e9565b82525050565b600060208201905061151f60008301846114fb565b92915050565b600060208201905061153a600083018461102c565b92915050565b60008135905061154f81611182565b92915050565b60006020828403121561156b5761156a61116e565b5b600061157984828501611540565b91505092915050565b600080fd5b600080fd5b6000611596611164565b90506115a2828261124a565b919050565b600067ffffffffffffffff8211156115c2576115c161121b565b5b6115cb8261120a565b9050602081019050919050565b82818337600083830152505050565b60006115fa6115f5846115a7565b61158c565b90508281526020810184848401111561161657611615611587565b5b6116218482856115d8565b509392505050565b600082601f83011261163e5761163d611582565b5b813561164e8482602086016115e7565b91505092915050565b60006020828403121561166d5761166c61116e565b5b600082013567ffffffffffffffff81111561168b5761168a611173565b5b61169784828501611629565b91505092915050565b60006116ab826114d7565b9050919050565b6116bb816116a0565b82525050565b60006020820190506116d660008301846116b2565b92915050565b6116e58161101a565b81146116f057600080fd5b50565b600081359050611702816116dc565b92915050565b60006020828403121561171e5761171d61116e565b5b600061172c848285016116f3565b91505092915050565b60006020601f8301049050919050565b600082821b905092915050565b6000600883026117827fffffffffffffffffffffffffffffffffffffffffffffffffffffffffffffffff82611745565b61178c8683611745565b95508019841693508086168417925050509392505050565b60006117bf6117ba6117b584611178565b6114ab565b611178565b9050919050565b6000819050919050565b6117d9836117a4565b6117ed6117e5826117c6565b848454611752565b825550505050565b600090565b6118026117f5565b61180d8184846117d0565b505050565b5b81811015611831576118266000826117fa565b600181019050611813565b5050565b601f821115611876576118478161109b565b61185084611735565b8101602085101561185f578190505b61187361186b85611735565b830182611812565b50505b505050565b600082821c905092915050565b60006118996000198460080261187b565b1980831691505092915050565b60006118b28383611888565b9150826002028217905092915050565b6118cb8261130b565b67ffffffffffffffff8111156118e4576118e361121b565b5b6118ee825461106a565b6118f9828285611835565b600060209050601f83116001811461192c576000841561191a578287015190505b61192485826118a6565b86555061198c565b601f19841661193a8661109b565b60005b828110156119625784890151825560018201915060208501945060208101905061193d565b8683101561197f578489015161197b601f891682611888565b8355505b6001600288020188555050505b505050505050565b7f5553444320646f6e6174696f6e20616d6f756e7420746f6f206c6f7700000000600082015250565b60006119ca601c83610ecb565b91506119d582611994565b602082019050919050565b600060208201905081810360008301526119f9816119bd565b9050919050565b6000606082019050611a15600083018661102c565b611a22602083018561102c565b611a2f6040830184611407565b949350505050565b60008115159050919050565b611a4c81611a37565b8114611a5757600080fd5b50565b600081519050611a6981611a43565b92915050565b600060208284031215611a8557611a8461116e565b5b6000611a9384828501611a5a565b91505092915050565b7f55534443207472616e73666572206661696c6564000000000000000000000000600082015250565b6000611ad2601483610ecb565b9150611add82611a9c565b602082019050919050565b60006020820190508181036000830152611b0181611ac5565b9050919050565b7f5553444300000000000000000000000000000000000000000000000000000000600082015250565b6000611b3e600483610ecb565b9150611b4982611b08565b602082019050919050565b6000604082019050611b696000830184611407565b8181036020830152611b7a81611b31565b905092915050565b6000604082019050611b97600083018561102c565b611ba46020830184611407565b939250505056fea2646970667358221220010359756cf5da25f6dc42190ccff0f36283cf46d004805a0cbb1ea0df2862a264736f6c63430008140033",
  "linkReferences": {},
  "deployedLinkReferences": {}
}